{
  "contractName": "Voting",
  "abi": [
    {
      "constant": true,
      "inputs": [],
      "name": "campaignName",
      "outputs": [
        {
          "name": "",
          "type": "string"
        }
      ],
      "payable": false,
      "stateMutability": "view",
      "type": "function"
    },
    {
      "constant": true,
      "inputs": [],
      "name": "noOfCandidates",
      "outputs": [
        {
          "name": "",
          "type": "uint256"
        }
      ],
      "payable": false,
      "stateMutability": "view",
      "type": "function"
    },
    {
      "constant": true,
      "inputs": [],
      "name": "acceptedCandidateCount",
      "outputs": [
        {
          "name": "",
          "type": "uint256"
        }
      ],
      "payable": false,
      "stateMutability": "view",
      "type": "function"
    },
    {
      "constant": true,
      "inputs": [
        {
          "name": "",
          "type": "uint256"
        }
      ],
      "name": "candidates",
      "outputs": [
        {
          "name": "candidateAddr",
          "type": "address"
        },
        {
          "name": "name",
          "type": "string"
        },
        {
          "name": "noOfVotes",
          "type": "uint256"
        },
        {
          "name": "stage",
          "type": "uint8"
        },
        {
          "name": "members",
          "type": "uint256"
        },
        {
          "name": "ipfsHash",
          "type": "string"
        }
      ],
      "payable": false,
      "stateMutability": "view",
      "type": "function"
    },
    {
      "constant": true,
      "inputs": [],
      "name": "noOfVoters",
      "outputs": [
        {
          "name": "",
          "type": "uint256"
        }
      ],
      "payable": false,
      "stateMutability": "view",
      "type": "function"
    },
    {
      "constant": true,
      "inputs": [],
      "name": "completed",
      "outputs": [
        {
          "name": "",
          "type": "bool"
        }
      ],
      "payable": false,
      "stateMutability": "view",
      "type": "function"
    },
    {
      "constant": true,
      "inputs": [],
      "name": "electionCommission",
      "outputs": [
        {
          "name": "",
          "type": "address"
        }
      ],
      "payable": false,
      "stateMutability": "view",
      "type": "function"
    },
    {
      "constant": true,
      "inputs": [],
      "name": "rejectedCandidateCount",
      "outputs": [
        {
          "name": "",
          "type": "uint256"
        }
      ],
      "payable": false,
      "stateMutability": "view",
      "type": "function"
    },
    {
      "inputs": [
        {
          "name": "_memberFee",
          "type": "uint256"
        },
        {
          "name": "_ec",
          "type": "address"
        },
        {
          "name": "_campaignName",
          "type": "string"
        }
      ],
      "payable": false,
      "stateMutability": "nonpayable",
      "type": "constructor"
    },
    {
      "constant": false,
      "inputs": [
        {
          "name": "_candidateId",
          "type": "uint256"
        }
      ],
      "name": "approveEntry",
      "outputs": [
        {
          "name": "entryStatus",
          "type": "bool"
        }
      ],
      "payable": false,
      "stateMutability": "nonpayable",
      "type": "function"
    },
    {
      "constant": false,
      "inputs": [
        {
          "name": "_candidateId",
          "type": "uint256"
        }
      ],
      "name": "rejectEntry",
      "outputs": [
        {
          "name": "rejectStatus",
          "type": "bool"
        }
      ],
      "payable": false,
      "stateMutability": "nonpayable",
      "type": "function"
    },
    {
      "constant": false,
      "inputs": [],
      "name": "closeCampaign",
      "outputs": [
        {
          "name": "closed",
          "type": "bool"
        }
      ],
      "payable": false,
      "stateMutability": "nonpayable",
      "type": "function"
    },
    {
      "constant": true,
      "inputs": [],
      "name": "getMemberFee",
      "outputs": [
        {
          "name": "fee",
          "type": "uint256"
        }
      ],
      "payable": false,
      "stateMutability": "view",
      "type": "function"
    },
    {
      "constant": false,
      "inputs": [
        {
          "name": "_name",
          "type": "string"
        },
        {
          "name": "_members",
          "type": "uint256"
        },
        {
          "name": "_ipfsHash",
          "type": "string"
        }
      ],
      "name": "submitEntry",
      "outputs": [
        {
          "name": "entryStatus",
          "type": "bool"
        }
      ],
      "payable": true,
      "stateMutability": "payable",
      "type": "function"
    },
    {
      "constant": false,
      "inputs": [
        {
          "name": "_candidateId",
          "type": "uint256"
        }
      ],
      "name": "vote",
      "outputs": [
        {
          "name": "voted",
          "type": "bool"
        }
      ],
      "payable": false,
      "stateMutability": "nonpayable",
      "type": "function"
    },
    {
      "constant": true,
      "inputs": [],
      "name": "getWinner",
      "outputs": [
        {
          "name": "winningCandidateId",
          "type": "uint256"
        }
      ],
      "payable": false,
      "stateMutability": "view",
      "type": "function"
    },
    {
      "constant": true,
      "inputs": [],
      "name": "getSummary",
      "outputs": [
        {
          "name": "candidateCount",
          "type": "uint256"
        },
        {
          "name": "noOfAcceptedCandidates",
          "type": "uint256"
        },
        {
          "name": "noOfRejectedCandidates",
          "type": "uint256"
        },
        {
          "name": "voterCount",
          "type": "uint256"
        },
        {
          "name": "fee",
          "type": "uint256"
        },
        {
          "name": "name",
          "type": "string"
        },
        {
          "name": "status",
          "type": "bool"
        }
      ],
      "payable": false,
      "stateMutability": "view",
      "type": "function"
    }
  ],
  "bytecode": "0x60806040523480156200001157600080fd5b5060405162001bbf38038062001bbf833981018060405260608110156200003757600080fd5b81019080805190602001909291908051906020019092919080516401000000008111156200006457600080fd5b828101905060208101848111156200007b57600080fd5b81518560018202830111640100000000821117156200009957600080fd5b5050929190505050816000806101000a81548173ffffffffffffffffffffffffffffffffffffffff021916908373ffffffffffffffffffffffffffffffffffffffff1602179055508260088190555080600190805190602001906200010092919062000125565b506000600260006101000a81548160ff021916908315150217905550505050620001d4565b828054600181600116156101000203166002900490600052602060002090601f016020900481019282601f106200016857805160ff191683800117855562000199565b8280016001018555821562000199579182015b82811115620001985782518255916020019190600101906200017b565b5b509050620001a89190620001ac565b5090565b620001d191905b80821115620001cd576000816000905550600101620001b3565b5090565b90565b6119db80620001e46000396000f3fe6080604052600436106100f35760003560e01c80634730525d1161008a5780639d9a7fe9116100595780639d9a7fe914610700578063aab46b7f1461072f578063c5b0980c14610786578063d7557f18146107b1576100f3565b80634730525d146104e35780636ad7cce61461050e5780638c06062c146106825780638e7ea5b2146106d5576100f3565b806318fa56c8116100c657806318fa56c8146102315780631eaa1ca11461025c5780633477ee2e146102af5780634051ddac14610425576100f3565b80630121b93f146100f85780630176422b1461014b5780630724fda914610176578063183531a114610206575b600080fd5b34801561010457600080fd5b506101316004803603602081101561011b57600080fd5b81019080803590602001909291905050506107e0565b604051808215151515815260200191505060405180910390f35b34801561015757600080fd5b50610160610ac1565b6040518082815260200191505060405180910390f35b34801561018257600080fd5b5061018b610acb565b6040518080602001828103825283818151815260200191508051906020019080838360005b838110156101cb5780820151818401526020810190506101b0565b50505050905090810190601f1680156101f85780820380516001836020036101000a031916815260200191505b509250505060405180910390f35b34801561021257600080fd5b5061021b610b69565b6040518082815260200191505060405180910390f35b34801561023d57600080fd5b50610246610b6f565b6040518082815260200191505060405180910390f35b34801561026857600080fd5b506102956004803603602081101561027f57600080fd5b8101908080359060200190929190505050610b75565b604051808215151515815260200191505060405180910390f35b3480156102bb57600080fd5b506102e8600480360360208110156102d257600080fd5b8101908080359060200190929190505050610d0a565b604051808773ffffffffffffffffffffffffffffffffffffffff1673ffffffffffffffffffffffffffffffffffffffff1681526020018060200186815260200185600281111561033457fe5b60ff16815260200184815260200180602001838103835288818151815260200191508051906020019080838360005b8381101561037e578082015181840152602081019050610363565b50505050905090810190601f1680156103ab5780820380516001836020036101000a031916815260200191505b50838103825284818151815260200191508051906020019080838360005b838110156103e45780820151818401526020810190506103c9565b50505050905090810190601f1680156104115780820380516001836020036101000a031916815260200191505b509850505050505050505060405180910390f35b34801561043157600080fd5b5061043a610ea3565b604051808881526020018781526020018681526020018581526020018481526020018060200183151515158152602001828103825284818151815260200191508051906020019080838360005b838110156104a2578082015181840152602081019050610487565b50505050905090810190601f1680156104cf5780820380516001836020036101000a031916815260200191505b509850505050505050505060405180910390f35b3480156104ef57600080fd5b506104f8610f83565b6040518082815260200191505060405180910390f35b6106686004803603606081101561052457600080fd5b810190808035906020019064010000000081111561054157600080fd5b82018360208201111561055357600080fd5b8035906020019184600183028401116401000000008311171561057557600080fd5b91908080601f016020809104026020016040519081016040528093929190818152602001838380828437600081840152601f19601f82011690508083019250505050505050919291929080359060200190929190803590602001906401000000008111156105e257600080fd5b8201836020820111156105f457600080fd5b8035906020019184600183028401116401000000008311171561061657600080fd5b91908080601f016020809104026020016040519081016040528093929190818152602001838380828437600081840152601f19601f820116905080830192505050505050509192919290505050610f89565b604051808215151515815260200191505060405180910390f35b34801561068e57600080fd5b506106bb600480360360208110156106a557600080fd5b81019080803590602001909291905050506114c0565b604051808215151515815260200191505060405180910390f35b3480156106e157600080fd5b506106ea611655565b6040518082815260200191505060405180910390f35b34801561070c57600080fd5b50610715611761565b604051808215151515815260200191505060405180910390f35b34801561073b57600080fd5b50610744611774565b604051808273ffffffffffffffffffffffffffffffffffffffff1673ffffffffffffffffffffffffffffffffffffffff16815260200191505060405180910390f35b34801561079257600080fd5b5061079b611799565b6040518082815260200191505060405180910390f35b3480156107bd57600080fd5b506107c661179f565b604051808215151515815260200191505060405180910390f35b6000600260009054906101000a900460ff1615610865576040517f08c379a00000000000000000000000000000000000000000000000000000000081526004018080602001828103825260128152602001807f43616d706169676e20697320636c6f736564000000000000000000000000000081525060200191505060405180910390fd5b600a60003373ffffffffffffffffffffffffffffffffffffffff1673ffffffffffffffffffffffffffffffffffffffff16815260200190815260200160002060010160009054906101000a900460ff1615610928576040517f08c379a00000000000000000000000000000000000000000000000000000000081526004018080602001828103825260178152602001807f566f7465722068617320616c726561647920766f74656400000000000000000081525060200191505060405180910390fd5b60008211801561093a57506003548211155b61094057fe5b60028081111561094c57fe5b6007600084815260200190815260200160002060030160009054906101000a900460ff16600281111561097b57fe5b146109d1576040517f08c379a000000000000000000000000000000000000000000000000000000000815260040180806020018281038252602a81526020018061190e602a913960400191505060405180910390fd5b60003390506001600a60008373ffffffffffffffffffffffffffffffffffffffff1673ffffffffffffffffffffffffffffffffffffffff16815260200190815260200160002060010160006101000a81548160ff0219169083151502179055506007600084815260200190815260200160002060020160008154809291906001019190505550600660008154809291906001019190505550600a60008273ffffffffffffffffffffffffffffffffffffffff1673ffffffffffffffffffffffffffffffffffffffff16815260200190815260200160002060010160009054906101000a900460ff16915050919050565b6000600854905090565b60018054600181600116156101000203166002900480601f016020809104026020016040519081016040528092919081815260200182805460018160011615610100020316600290048015610b615780601f10610b3657610100808354040283529160200191610b61565b820191906000526020600020905b815481529060010190602001808311610b4457829003601f168201915b505050505081565b60035481565b60045481565b60008060009054906101000a900473ffffffffffffffffffffffffffffffffffffffff1673ffffffffffffffffffffffffffffffffffffffff163373ffffffffffffffffffffffffffffffffffffffff1614610c1c576040517f08c379a00000000000000000000000000000000000000000000000000000000081526004018080602001828103825260298152602001806119626029913960400191505060405180910390fd5b600260009054906101000a900460ff1615610c9f576040517f08c379a00000000000000000000000000000000000000000000000000000000081526004018080602001828103825260128152602001807f43616d706169676e20697320636c6f736564000000000000000000000000000081525060200191505060405180910390fd5b600082118015610cb157506003548211155b610cb757fe5b60026007600084815260200190815260200160002060030160006101000a81548160ff02191690836002811115610cea57fe5b021790555060046000815480929190600101919050555060019050919050565b60076020528060005260406000206000915090508060000160009054906101000a900473ffffffffffffffffffffffffffffffffffffffff1690806001018054600181600116156101000203166002900480601f016020809104026020016040519081016040528092919081815260200182805460018160011615610100020316600290048015610ddc5780601f10610db157610100808354040283529160200191610ddc565b820191906000526020600020905b815481529060010190602001808311610dbf57829003601f168201915b5050505050908060020154908060030160009054906101000a900460ff1690806004015490806005018054600181600116156101000203166002900480601f016020809104026020016040519081016040528092919081815260200182805460018160011615610100020316600290048015610e995780601f10610e6e57610100808354040283529160200191610e99565b820191906000526020600020905b815481529060010190602001808311610e7c57829003601f168201915b5050505050905086565b6000806000806000606060006003546004546005546006546008546001600260009054906101000a900460ff16818054600181600116156101000203166002900480601f016020809104026020016040519081016040528092919081815260200182805460018160011615610100020316600290048015610f655780601f10610f3a57610100808354040283529160200191610f65565b820191906000526020600020905b815481529060010190602001808311610f4857829003601f168201915b50505050509150965096509650965096509650965090919293949596565b60065481565b6000600260009054906101000a900460ff161561100e576040517f08c379a00000000000000000000000000000000000000000000000000000000081526004018080602001828103825260128152602001807f43616d706169676e20697320636c6f736564000000000000000000000000000081525060200191505060405180910390fd5b6000809054906101000a900473ffffffffffffffffffffffffffffffffffffffff1673ffffffffffffffffffffffffffffffffffffffff163373ffffffffffffffffffffffffffffffffffffffff1614156110d1576040517f08c379a00000000000000000000000000000000000000000000000000000000081526004018080602001828103825260188152602001807f45432063616e6e6f7420626520612063616e646964617465000000000000000081525060200191505060405180910390fd5b6009846040518082805190602001908083835b6020831061110757805182526020820191506020810190506020830392506110e4565b6001836020036101000a038019825116818451168082178552505050505050905001915050908152602001604051809103902060009054906101000a900460ff16156111bb576040517f08c379a00000000000000000000000000000000000000000000000000000000081526004018080602001828103825260208152602001807f43616e6469646174652068617320616c7265616479207265676973746572656481525060200191505060405180910390fd5b60008311611214576040517f08c379a000000000000000000000000000000000000000000000000000000000815260040180806020018281038252602a815260200180611938602a913960400191505060405180910390fd5b600060085484029050348114611292576040517f08c379a000000000000000000000000000000000000000000000000000000000815260040180806020018281038252601c8152602001807f496e737566666963656e7420726567697374726174696f6e206665650000000081525060200191505060405180910390fd5b6003600081548092919060010191905055506040518060c001604052803373ffffffffffffffffffffffffffffffffffffffff16815260200186815260200160008152602001600160028111156112e557fe5b81526020018581526020018481525060076000600354815260200190815260200160002060008201518160000160006101000a81548173ffffffffffffffffffffffffffffffffffffffff021916908373ffffffffffffffffffffffffffffffffffffffff160217905550602082015181600101908051906020019061136c929190611868565b506040820151816002015560608201518160030160006101000a81548160ff0219169083600281111561139b57fe5b02179055506080820151816004015560a08201518160050190805190602001906113c6929190611868565b5090505060016009866040518082805190602001908083835b6020831061140257805182526020820191506020810190506020830392506113df565b6001836020036101000a038019825116818451168082178552505050505050905001915050908152602001604051809103902060006101000a81548160ff0219169083151502179055506000809054906101000a900473ffffffffffffffffffffffffffffffffffffffff1673ffffffffffffffffffffffffffffffffffffffff166108fc349081150290604051600060405180830381858888f193505050501580156114b3573d6000803e3d6000fd5b5060019150509392505050565b60008060009054906101000a900473ffffffffffffffffffffffffffffffffffffffff1673ffffffffffffffffffffffffffffffffffffffff163373ffffffffffffffffffffffffffffffffffffffff1614611567576040517f08c379a00000000000000000000000000000000000000000000000000000000081526004018080602001828103825260298152602001806119626029913960400191505060405180910390fd5b600260009054906101000a900460ff16156115ea576040517f08c379a00000000000000000000000000000000000000000000000000000000081526004018080602001828103825260128152602001807f43616d706169676e20697320636c6f736564000000000000000000000000000081525060200191505060405180910390fd5b6000821180156115fc57506003548211155b61160257fe5b60006007600084815260200190815260200160002060030160006101000a81548160ff0219169083600281111561163557fe5b021790555060056000815480929190600101919050555060019050919050565b60006001600354116116b2576040517f08c379a000000000000000000000000000000000000000000000000000000000815260040180806020018281038252602581526020018061198b6025913960400191505060405180910390fd5b600080905060008090506000600190505b6003548111611758576002808111156116d857fe5b6007600083815260200190815260200160002060030160009054906101000a900460ff16600281111561170757fe5b1480156117295750816007600083815260200190815260200160002060020154115b1561174b57809250600760008281526020019081526020016000206002015491505b80806001019150506116c3565b50819250505090565b600260009054906101000a900460ff1681565b6000809054906101000a900473ffffffffffffffffffffffffffffffffffffffff1681565b60055481565b60008060009054906101000a900473ffffffffffffffffffffffffffffffffffffffff1673ffffffffffffffffffffffffffffffffffffffff163373ffffffffffffffffffffffffffffffffffffffff1614611846576040517f08c379a00000000000000000000000000000000000000000000000000000000081526004018080602001828103825260298152602001806119626029913960400191505060405180910390fd5b6001600260006101000a81548160ff0219169083151502179055506001905090565b828054600181600116156101000203166002900490600052602060002090601f016020900481019282601f106118a957805160ff19168380011785556118d7565b828001600101855582156118d7579182015b828111156118d65782518255916020019190600101906118bb565b5b5090506118e491906118e8565b5090565b61190a91905b808211156119065760008160009055506001016118ee565b5090565b9056fe5468652063616e646964617465206973206e6f7420656c696769626c6520666f7220656c656374696f6e43616e646964617465207061727479206d75737420686176652061746c656173742031206d656d6265724f6e6c7920454320697320616c6c6f77656420746f20706572666f726d207468697320616374696f6e4e6f2e206f662063616e646964617465732073686f756c642062652061746c656173742032a165627a7a7230582078d119bddaf1ad2291cd702a8b35b3d69b5b9e0ec9632cb9f61b62aa0d9afad10029",
  "source": "pragma solidity >=0.5.0 <0.7.0;\r\n\r\ncontract Voting {\r\n\r\n    /**********************\r\n    *   PUBLIC VARS\r\n    ***********************/\r\n\r\n    // Election commission\r\n    address payable public electionCommission;\r\n    // Name of campaign\r\n    string public campaignName;\r\n    // Checks whether campaign has been completed (default - false)\r\n    bool public completed;\r\n    // Keeps track of no. of candidates in campaign\r\n    uint public noOfCandidates;\r\n    // Keep track of accepted candidates\r\n    uint public acceptedCandidateCount;\r\n    // Keep track of rejected candidates\r\n    uint public rejectedCandidateCount;\r\n    // Keep track of no. of voters\r\n    uint public noOfVoters;\r\n    // Keeps track of candidates who have applied to campaign\r\n    mapping(uint => Candidate) public candidates;\r\n\r\n    // Track entry's approval stage\r\n    enum EntryStage {REJECT, NOT_DECIDED, ACCEPT}\r\n\r\n    struct Candidate {\r\n        address candidateAddr; // Unique id for candidate\r\n        string name; // human readable name\r\n        uint noOfVotes; // current vote count (default - 0)\r\n        EntryStage stage; // Approval status (default - NOT_DECIDED)\r\n        uint members; // members present in party\r\n        string ipfsHash; // contains document for file verification\r\n    }\r\n\r\n    struct Voter {\r\n        bytes32 uid; // TODO : Look into EPIC\r\n        bool voted; // track if voter has already voted\r\n    }\r\n\r\n    constructor(uint _memberFee, address payable _ec, string memory _campaignName) public {\r\n        electionCommission = _ec;\r\n        memberFee = _memberFee;\r\n        campaignName = _campaignName;\r\n        completed = false;\r\n    }\r\n\r\n    /**********************\r\n    *   PRIVATE VARS\r\n    ***********************/\r\n\r\n    // Individual member registration fee (wei)\r\n    uint private memberFee;\r\n    // Used for tracking the no. of times candidate has applied\r\n    mapping(string => bool) private candidateChecker;\r\n    // Used for tracking voters\r\n    mapping(address => Voter) private voters;\r\n\r\n    /**********************\r\n    *   ADMIN FUNCTIONS\r\n    ***********************/\r\n\r\n    modifier onlyEC {\r\n        require(msg.sender == electionCommission, \"Only EC is allowed to perform this action\");\r\n        _;\r\n    }\r\n\r\n    modifier onlyOngoingCampaign {\r\n        require(!completed, \"Campaign is closed\");\r\n        _;\r\n    }\r\n\r\n    /**\r\n     * @dev Approve candidate for election\r\n     * @param _candidateId Id of the candidate\r\n     */\r\n    function approveEntry(uint _candidateId) public onlyEC onlyOngoingCampaign returns (bool entryStatus) {\r\n        assert(_candidateId > 0 && _candidateId <= noOfCandidates);\r\n        candidates[_candidateId].stage = EntryStage.ACCEPT;\r\n        acceptedCandidateCount++;\r\n\r\n        return true;\r\n    }\r\n\r\n    /**\r\n     * @dev Reject candidate for election\r\n     * @param _candidateId Id of the candidate\r\n     */\r\n    function rejectEntry(uint _candidateId) public onlyEC onlyOngoingCampaign returns (bool rejectStatus) {\r\n        assert(_candidateId > 0 && _candidateId <= noOfCandidates);\r\n        candidates[_candidateId].stage = EntryStage.REJECT;\r\n        rejectedCandidateCount++;\r\n\r\n        return true;\r\n    }\r\n\r\n    /**\r\n     * @dev Allows EC to close campaign\r\n     */\r\n     function closeCampaign() public onlyEC returns (bool closed) {\r\n         completed = true;\r\n         return true;\r\n     }\r\n\r\n    /**\r\n     * @dev Getter for member fee\r\n     */\r\n    function getMemberFee() public view returns (uint fee) {\r\n        return memberFee;\r\n    }\r\n\r\n    /**\r\n     * @dev Candidates (Party) can submit their entry to be approved\r\n     * @param _name Name of the candidate\r\n     * @param _members No. of members in party\r\n     * @param _ipfsHash IPFS hash where candidate documents are stored\r\n     */\r\n    function submitEntry(string memory _name,uint _members, string memory _ipfsHash)\r\n    public onlyOngoingCampaign payable returns (bool entryStatus)  {\r\n        require(msg.sender != electionCommission, \"EC cannot be a candidate\");\r\n        require(!candidateChecker[_name], \"Candidate has already registered\");\r\n        require(_members > 0, \"Candidate party must have atleast 1 member\");\r\n\r\n        // Compute registration fee\r\n        uint registrationFee = _members * memberFee;\r\n        require(registrationFee == msg.value, \"Insufficent registration fee\");\r\n\r\n        noOfCandidates++;\r\n        candidates[noOfCandidates] = Candidate({\r\n            candidateAddr: msg.sender,\r\n            name: _name,\r\n            noOfVotes: 0,\r\n            stage: EntryStage.NOT_DECIDED,\r\n            members: _members,\r\n            ipfsHash: _ipfsHash\r\n        });\r\n        candidateChecker[_name] = true;\r\n\r\n        // Tranfer fee to EC\r\n        electionCommission.transfer(msg.value);\r\n\r\n        return true;\r\n    }\r\n\r\n    /**\r\n     * @dev Allows users to vote for a given candidate\r\n     * @param _candidateId Id of the candidate to vote\r\n     */\r\n    function vote(uint _candidateId) public onlyOngoingCampaign returns (bool voted){\r\n        require(!voters[msg.sender].voted,\"Voter has already voted\");\r\n        assert(_candidateId > 0 && _candidateId <= noOfCandidates);\r\n        require(candidates[_candidateId].stage == EntryStage.ACCEPT,\r\n        \"The candidate is not eligible for election\");\r\n\r\n        address voterAddr = msg.sender;\r\n        voters[voterAddr].voted = true;\r\n        candidates[_candidateId].noOfVotes++;\r\n        noOfVoters++;\r\n\r\n        return voters[voterAddr].voted;\r\n    }\r\n\r\n    /**\r\n     * @dev Get winner of the election\r\n     */\r\n     function getWinner() public view returns (uint winningCandidateId) {\r\n         require(noOfCandidates > 1, \"No. of candidates should be atleast 2\");\r\n\r\n         // TODO : Handle draw case\r\n         uint maxIndex = 0;\r\n         uint maxVotes = 0;\r\n\r\n         for(uint idx = 1; idx <= noOfCandidates; idx++) {\r\n             // Check only eligible candidates\r\n             if (candidates[idx].stage == EntryStage.ACCEPT && candidates[idx].noOfVotes > maxVotes) {\r\n                 maxIndex = idx;\r\n                 maxVotes = candidates[idx].noOfVotes;\r\n             }\r\n         }\r\n\r\n        return maxIndex;\r\n     }\r\n\r\n    /**\r\n     * @dev Provides summary of campaign\r\n     */\r\n     function getSummary() public view returns (\r\n         uint candidateCount,\r\n         uint noOfAcceptedCandidates,\r\n         uint noOfRejectedCandidates,\r\n         uint voterCount,\r\n         uint fee,\r\n         string memory name,\r\n         bool status\r\n    ) {\r\n        return (\r\n            noOfCandidates,\r\n            acceptedCandidateCount,\r\n            rejectedCandidateCount,\r\n            noOfVoters,\r\n            memberFee,\r\n            campaignName,\r\n            completed\r\n        );\r\n    }\r\n\r\n}",
  "sourcePath": "/mnt/d/Projects/My Projects/devote/contracts/Voting.sol",
  "compiler": {
    "name": "solc",
    "version": "0.5.8+commit.23d335f2.Emscripten.clang"
  },
  "schemaVersion": "3.0.16",
  "updatedAt": "2019-10-14T18:12:54.372Z",
  "devdoc": {
    "methods": {
      "approveEntry(uint256)": {
        "details": "Approve candidate for election\r",
        "params": {
          "_candidateId": "Id of the candidate\r"
        }
      },
      "closeCampaign()": {
        "details": "Allows EC to close campaign\r"
      },
      "getMemberFee()": {
        "details": "Getter for member fee\r"
      },
      "getSummary()": {
        "details": "Provides summary of campaign\r"
      },
      "getWinner()": {
        "details": "Get winner of the election\r"
      },
      "rejectEntry(uint256)": {
        "details": "Reject candidate for election\r",
        "params": {
          "_candidateId": "Id of the candidate\r"
        }
      },
      "submitEntry(string,uint256,string)": {
        "details": "Candidates (Party) can submit their entry to be approved\r",
        "params": {
          "_ipfsHash": "IPFS hash where candidate documents are stored\r",
          "_members": "No. of members in party\r",
          "_name": "Name of the candidate\r"
        }
      },
      "vote(uint256)": {
        "details": "Allows users to vote for a given candidate\r",
        "params": {
          "_candidateId": "Id of the candidate to vote\r"
        }
      }
    }
  },
  "userdoc": {
    "methods": {}
  }
}